{
  "contractName": "LandRegistryAccess",
  "abi": [
    {
      "inputs": [
        {
          "internalType": "address",
          "name": "initialAdmin",
          "type": "address"
        }
      ],
      "stateMutability": "nonpayable",
      "type": "constructor"
    },
    {
      "anonymous": false,
      "inputs": [
        {
          "indexed": true,
          "internalType": "bytes32",
          "name": "role",
          "type": "bytes32"
        },
        {
          "indexed": true,
          "internalType": "bytes32",
          "name": "previousAdminRole",
          "type": "bytes32"
        },
        {
          "indexed": true,
          "internalType": "bytes32",
          "name": "newAdminRole",
          "type": "bytes32"
        }
      ],
      "name": "RoleAdminChanged",
      "type": "event"
    },
    {
      "anonymous": false,
      "inputs": [
        {
          "indexed": true,
          "internalType": "bytes32",
          "name": "role",
          "type": "bytes32"
        },
        {
          "indexed": true,
          "internalType": "address",
          "name": "account",
          "type": "address"
        },
        {
          "indexed": true,
          "internalType": "address",
          "name": "sender",
          "type": "address"
        }
      ],
      "name": "RoleGranted",
      "type": "event"
    },
    {
      "anonymous": false,
      "inputs": [
        {
          "indexed": true,
          "internalType": "bytes32",
          "name": "role",
          "type": "bytes32"
        },
        {
          "indexed": true,
          "internalType": "address",
          "name": "account",
          "type": "address"
        }
      ],
      "name": "RoleGranted",
      "type": "event"
    },
    {
      "anonymous": false,
      "inputs": [
        {
          "indexed": true,
          "internalType": "bytes32",
          "name": "role",
          "type": "bytes32"
        },
        {
          "indexed": true,
          "internalType": "address",
          "name": "account",
          "type": "address"
        },
        {
          "indexed": true,
          "internalType": "address",
          "name": "sender",
          "type": "address"
        }
      ],
      "name": "RoleRevoked",
      "type": "event"
    },
    {
      "anonymous": false,
      "inputs": [
        {
          "indexed": true,
          "internalType": "bytes32",
          "name": "role",
          "type": "bytes32"
        },
        {
          "indexed": true,
          "internalType": "address",
          "name": "account",
          "type": "address"
        }
      ],
      "name": "RoleRevoked",
      "type": "event"
    },
    {
      "inputs": [],
      "name": "ADMIN_ROLE",
      "outputs": [
        {
          "internalType": "bytes32",
          "name": "",
          "type": "bytes32"
        }
      ],
      "stateMutability": "view",
      "type": "function"
    },
    {
      "inputs": [],
      "name": "DEFAULT_ADMIN_ROLE",
      "outputs": [
        {
          "internalType": "bytes32",
          "name": "",
          "type": "bytes32"
        }
      ],
      "stateMutability": "view",
      "type": "function"
    },
    {
      "inputs": [],
      "name": "INSPECTOR_ROLE",
      "outputs": [
        {
          "internalType": "bytes32",
          "name": "",
          "type": "bytes32"
        }
      ],
      "stateMutability": "view",
      "type": "function"
    },
    {
      "inputs": [],
      "name": "OWNER_ROLE",
      "outputs": [
        {
          "internalType": "bytes32",
          "name": "",
          "type": "bytes32"
        }
      ],
      "stateMutability": "view",
      "type": "function"
    },
    {
      "inputs": [],
      "name": "VERIFIER_ROLE",
      "outputs": [
        {
          "internalType": "bytes32",
          "name": "",
          "type": "bytes32"
        }
      ],
      "stateMutability": "view",
      "type": "function"
    },
    {
      "inputs": [
        {
          "internalType": "bytes32",
          "name": "role",
          "type": "bytes32"
        }
      ],
      "name": "getRoleAdmin",
      "outputs": [
        {
          "internalType": "bytes32",
          "name": "",
          "type": "bytes32"
        }
      ],
      "stateMutability": "view",
      "type": "function"
    },
    {
      "inputs": [
        {
          "internalType": "bytes32",
          "name": "role",
          "type": "bytes32"
        },
        {
          "internalType": "address",
          "name": "account",
          "type": "address"
        }
      ],
      "name": "grantRole",
      "outputs": [],
      "stateMutability": "nonpayable",
      "type": "function"
    },
    {
      "inputs": [
        {
          "internalType": "bytes32",
          "name": "role",
          "type": "bytes32"
        },
        {
          "internalType": "address",
          "name": "account",
          "type": "address"
        }
      ],
      "name": "hasRole",
      "outputs": [
        {
          "internalType": "bool",
          "name": "",
          "type": "bool"
        }
      ],
      "stateMutability": "view",
      "type": "function"
    },
    {
      "inputs": [
        {
          "internalType": "bytes32",
          "name": "role",
          "type": "bytes32"
        },
        {
          "internalType": "address",
          "name": "account",
          "type": "address"
        }
      ],
      "name": "renounceRole",
      "outputs": [],
      "stateMutability": "nonpayable",
      "type": "function"
    },
    {
      "inputs": [
        {
          "internalType": "bytes32",
          "name": "role",
          "type": "bytes32"
        },
        {
          "internalType": "address",
          "name": "account",
          "type": "address"
        }
      ],
      "name": "revokeRole",
      "outputs": [],
      "stateMutability": "nonpayable",
      "type": "function"
    },
    {
      "inputs": [
        {
          "internalType": "bytes4",
          "name": "interfaceId",
          "type": "bytes4"
        }
      ],
      "name": "supportsInterface",
      "outputs": [
        {
          "internalType": "bool",
          "name": "",
          "type": "bool"
        }
      ],
      "stateMutability": "view",
      "type": "function"
    },
    {
      "inputs": [
        {
          "internalType": "address",
          "name": "account",
          "type": "address"
        },
        {
          "internalType": "bytes32",
          "name": "role",
          "type": "bytes32"
        }
      ],
      "name": "addRole",
      "outputs": [],
      "stateMutability": "nonpayable",
      "type": "function"
    },
    {
      "inputs": [
        {
          "internalType": "address",
          "name": "account",
          "type": "address"
        },
        {
          "internalType": "bytes32",
          "name": "role",
          "type": "bytes32"
        }
      ],
      "name": "removeRole",
      "outputs": [],
      "stateMutability": "nonpayable",
      "type": "function"
    },
    {
      "inputs": [
        {
          "internalType": "address",
          "name": "account",
          "type": "address"
        },
        {
          "internalType": "bytes32",
          "name": "role",
          "type": "bytes32"
        }
      ],
      "name": "checkRole",
      "outputs": [
        {
          "internalType": "bool",
          "name": "",
          "type": "bool"
        }
      ],
      "stateMutability": "view",
      "type": "function"
    }
  ],
  "bytecode": "0x608060405234801561000f575f5ffd5b50604051610b56380380610b5683398101604081905261002e91610112565b6100385f82610068565b6100627fa49807205ce4d355092ef5a8a18f56e8913cf4a201fbe287825b095693c2177582610068565b5061013f565b6100728282610076565b5050565b5f828152602081815260408083206001600160a01b038516845290915290205460ff16610072575f828152602081815260408083206001600160a01b03851684529091529020805460ff191660011790556100ce3390565b6001600160a01b0316816001600160a01b0316837f2f8788117e7eff1d82e926ec794901d17c78024a50270940304540a733656f0d60405160405180910390a45050565b5f60208284031215610122575f5ffd5b81516001600160a01b0381168114610138575f5ffd5b9392505050565b610a0a8061014c5f395ff3fe608060405234801561000f575f5ffd5b50600436106100e5575f3560e01c806391d1485411610088578063d547741f11610063578063d547741f146101e3578063e3a3c522146101f6578063e58378bb1461021d578063e7705db614610244575f5ffd5b806391d14854146101b6578063a217fddf146101c9578063a73f7f8a146101d0575f5ffd5b80632f2ff15d116100c35780632f2ff15d1461015457806336568abe146101695780636853920e1461017c57806375b238fc1461018f575f5ffd5b806301ffc9a7146100e9578063248a9ca3146101115780632ae8a7e314610141575b5f5ffd5b6100fc6100f7366004610804565b61026b565b60405190151581526020015b60405180910390f35b61013361011f36600461082b565b5f9081526020819052604090206001015490565b604051908152602001610108565b6100fc61014f36600461085d565b6102a1565b610167610162366004610885565b6102b3565b005b610167610177366004610885565b6102dc565b61016761018a36600461085d565b61035f565b6101337fa49807205ce4d355092ef5a8a18f56e8913cf4a201fbe287825b095693c2177581565b6100fc6101c4366004610885565b610411565b6101335f81565b6101676101de36600461085d565b610439565b6101676101f1366004610885565b6104eb565b6101337f273dcf2136c7d8ef632bb8ef13dbca69a8f36fa620c7468671b3153d46a211c081565b6101337fb19546dff01e856fb3f010c267a7b1c60363cf8a4664e21cc89c26224620214e81565b6101337f0ce23c3e399818cfee81a7ab0880f714e53d7672b08df0fa62f2843416e1ea0981565b5f6001600160e01b03198216637965db0b60e01b148061029b57506301ffc9a760e01b6001600160e01b03198316145b92915050565b5f6102ac8284610411565b9392505050565b5f828152602081905260409020600101546102cd8161050f565b6102d7838361051c565b505050565b6001600160a01b03811633146103515760405162461bcd60e51b815260206004820152602f60248201527f416363657373436f6e74726f6c3a2063616e206f6e6c792072656e6f756e636560448201526e103937b632b9903337b91039b2b63360891b60648201526084015b60405180910390fd5b61035b828261059f565b5050565b6103897fa49807205ce4d355092ef5a8a18f56e8913cf4a201fbe287825b095693c2177533610411565b6103ce5760405162461bcd60e51b815260206004820152601660248201527521b0b63632b91034b9903737ba1030b71030b236b4b760511b6044820152606401610348565b6103d881836104eb565b6040516001600160a01b0383169082907f155aaafb6329a2098580462df33ec4b7441b19729b9601c5fc17ae1cf99a8a52905f90a35050565b5f918252602082815260408084206001600160a01b0393909316845291905290205460ff1690565b6104637fa49807205ce4d355092ef5a8a18f56e8913cf4a201fbe287825b095693c2177533610411565b6104a85760405162461bcd60e51b815260206004820152601660248201527521b0b63632b91034b9903737ba1030b71030b236b4b760511b6044820152606401610348565b6104b281836102b3565b6040516001600160a01b0383169082907f2ae6a113c0ed5b78a53413ffbb7679881f11145ccfba4fb92e863dfcd5a1d2f3905f90a35050565b5f828152602081905260409020600101546105058161050f565b6102d7838361059f565b6105198133610603565b50565b6105268282610411565b61035b575f828152602081815260408083206001600160a01b03851684529091529020805460ff1916600117905561055b3390565b6001600160a01b0316816001600160a01b0316837f2f8788117e7eff1d82e926ec794901d17c78024a50270940304540a733656f0d60405160405180910390a45050565b6105a98282610411565b1561035b575f828152602081815260408083206001600160a01b0385168085529252808320805460ff1916905551339285917ff6391f5c32d9c69d2a47ea670b442974b53935d1edc7fd64eb21e047a839171b9190a45050565b61060d8282610411565b61035b5761061a8161065c565b61062583602061066e565b6040516020016106369291906108c6565b60408051601f198184030181529082905262461bcd60e51b825261034891600401610924565b606061029b6001600160a01b03831660145b60605f61067c83600261096d565b610687906002610984565b67ffffffffffffffff81111561069f5761069f610997565b6040519080825280601f01601f1916602001820160405280156106c9576020820181803683370190505b509050600360fc1b815f815181106106e3576106e36109ab565b60200101906001600160f81b03191690815f1a905350600f60fb1b81600181518110610711576107116109ab565b60200101906001600160f81b03191690815f1a9053505f61073384600261096d565b61073e906001610984565b90505b60018111156107b5576f181899199a1a9b1b9c1cb0b131b232b360811b85600f1660108110610772576107726109ab565b1a60f81b828281518110610788576107886109ab565b60200101906001600160f81b03191690815f1a90535060049490941c936107ae816109bf565b9050610741565b5083156102ac5760405162461bcd60e51b815260206004820181905260248201527f537472696e67733a20686578206c656e67746820696e73756666696369656e746044820152606401610348565b5f60208284031215610814575f5ffd5b81356001600160e01b0319811681146102ac575f5ffd5b5f6020828403121561083b575f5ffd5b5035919050565b80356001600160a01b0381168114610858575f5ffd5b919050565b5f5f6040838503121561086e575f5ffd5b61087783610842565b946020939093013593505050565b5f5f60408385031215610896575f5ffd5b823591506108a660208401610842565b90509250929050565b5f81518060208401855e5f93019283525090919050565b7f416363657373436f6e74726f6c3a206163636f756e742000000000000000000081525f6108f760178301856108af565b7001034b99036b4b9b9b4b733903937b6329607d1b815261091b60118201856108af565b95945050505050565b602081525f82518060208401528060208501604085015e5f604082850101526040601f19601f83011684010191505092915050565b634e487b7160e01b5f52601160045260245ffd5b808202811582820484141761029b5761029b610959565b8082018082111561029b5761029b610959565b634e487b7160e01b5f52604160045260245ffd5b634e487b7160e01b5f52603260045260245ffd5b5f816109cd576109cd610959565b505f19019056fea264697066735822122089ef6188efa5e527ea5b33bc932580e906a16e46c3f916859b7102b87eebd6f764736f6c634300081c0033",
  "immutableReferences": {},
  "source": "// SPDX-License-Identifier: MIT\npragma solidity ^0.8.0;\n\nimport \"@openzeppelin/contracts/access/AccessControl.sol\";\n\ncontract LandRegistryAccess is AccessControl {\n    bytes32 public constant ADMIN_ROLE = keccak256(\"ADMIN_ROLE\");\n    bytes32 public constant INSPECTOR_ROLE = keccak256(\"INSPECTOR_ROLE\");\n    bytes32 public constant OWNER_ROLE = keccak256(\"OWNER_ROLE\");\n    bytes32 public constant VERIFIER_ROLE = keccak256(\"VERIFIER_ROLE\");\n\n    event RoleGranted(bytes32 indexed role, address indexed account);\n    event RoleRevoked(bytes32 indexed role, address indexed account);\n\n    constructor(address initialAdmin) {\n        _setupRole(DEFAULT_ADMIN_ROLE, initialAdmin);\n        _setupRole(ADMIN_ROLE, initialAdmin);\n    }\n\n    modifier onlyAdmin() {\n        require(hasRole(ADMIN_ROLE, msg.sender), \"Caller is not an admin\");\n        _;\n    }\n\n    modifier onlyInspector() {\n        require(hasRole(INSPECTOR_ROLE, msg.sender), \"Caller is not an inspector\");\n        _;\n    }\n\n    modifier onlyVerifier() {\n        require(hasRole(VERIFIER_ROLE, msg.sender), \"Caller is not a verifier\");\n        _;\n    }\n\n    function addRole(address account, bytes32 role) public onlyAdmin {\n        grantRole(role, account);\n        emit RoleGranted(role, account);\n    }\n\n    function removeRole(address account, bytes32 role) public onlyAdmin {\n        revokeRole(role, account);\n        emit RoleRevoked(role, account);\n    }\n\n    function checkRole(address account, bytes32 role) public view returns (bool) {\n        return hasRole(role, account);\n    }\n}\n",
  "sourcePath": "c:\\Users\\Admin\\Desktop\\ProCons\\land-registry\\contracts\\AccessControl.sol",
  "compiler": {
    "name": "solc",
    "version": "0.8.28+commit.7893614a.Emscripten.clang"
  },
  "schemaVersion": "3.4.16",
  "updatedAt": "2024-11-28T06:26:28.267Z",
  "devdoc": {
    "events": {
      "RoleAdminChanged(bytes32,bytes32,bytes32)": {
        "details": "Emitted when `newAdminRole` is set as ``role``'s admin role, replacing `previousAdminRole` `DEFAULT_ADMIN_ROLE` is the starting admin for all roles, despite {RoleAdminChanged} not being emitted signaling this. _Available since v3.1._"
      },
      "RoleGranted(bytes32,address,address)": {
        "details": "Emitted when `account` is granted `role`. `sender` is the account that originated the contract call, an admin role bearer except when using {AccessControl-_setupRole}."
      },
      "RoleRevoked(bytes32,address,address)": {
        "details": "Emitted when `account` is revoked `role`. `sender` is the account that originated the contract call:   - if using `revokeRole`, it is the admin role bearer   - if using `renounceRole`, it is the role bearer (i.e. `account`)"
      }
    },
    "kind": "dev",
    "methods": {
      "getRoleAdmin(bytes32)": {
        "details": "Returns the admin role that controls `role`. See {grantRole} and {revokeRole}. To change a role's admin, use {_setRoleAdmin}."
      },
      "grantRole(bytes32,address)": {
        "details": "Grants `role` to `account`. If `account` had not been already granted `role`, emits a {RoleGranted} event. Requirements: - the caller must have ``role``'s admin role. May emit a {RoleGranted} event."
      },
      "hasRole(bytes32,address)": {
        "details": "Returns `true` if `account` has been granted `role`."
      },
      "renounceRole(bytes32,address)": {
        "details": "Revokes `role` from the calling account. Roles are often managed via {grantRole} and {revokeRole}: this function's purpose is to provide a mechanism for accounts to lose their privileges if they are compromised (such as when a trusted device is misplaced). If the calling account had been revoked `role`, emits a {RoleRevoked} event. Requirements: - the caller must be `account`. May emit a {RoleRevoked} event."
      },
      "revokeRole(bytes32,address)": {
        "details": "Revokes `role` from `account`. If `account` had been granted `role`, emits a {RoleRevoked} event. Requirements: - the caller must have ``role``'s admin role. May emit a {RoleRevoked} event."
      },
      "supportsInterface(bytes4)": {
        "details": "See {IERC165-supportsInterface}."
      }
    },
    "version": 1
  },
  "userdoc": {
    "kind": "user",
    "methods": {},
    "version": 1
  }
}