{
  "contractName": "LandRegistry",
  "abi": [
    {
      "inputs": [],
      "stateMutability": "nonpayable",
      "type": "constructor"
    },
    {
      "anonymous": false,
      "inputs": [
        {
          "indexed": true,
          "internalType": "address",
          "name": "owner",
          "type": "address"
        },
        {
          "indexed": true,
          "internalType": "address",
          "name": "approved",
          "type": "address"
        },
        {
          "indexed": true,
          "internalType": "uint256",
          "name": "tokenId",
          "type": "uint256"
        }
      ],
      "name": "Approval",
      "type": "event"
    },
    {
      "anonymous": false,
      "inputs": [
        {
          "indexed": true,
          "internalType": "address",
          "name": "owner",
          "type": "address"
        },
        {
          "indexed": true,
          "internalType": "address",
          "name": "operator",
          "type": "address"
        },
        {
          "indexed": false,
          "internalType": "bool",
          "name": "approved",
          "type": "bool"
        }
      ],
      "name": "ApprovalForAll",
      "type": "event"
    },
    {
      "anonymous": false,
      "inputs": [
        {
          "indexed": true,
          "internalType": "uint256",
          "name": "propertyId",
          "type": "uint256"
        },
        {
          "indexed": false,
          "internalType": "string",
          "name": "ipfsHash",
          "type": "string"
        }
      ],
      "name": "DocumentsUpdated",
      "type": "event"
    },
    {
      "anonymous": false,
      "inputs": [
        {
          "indexed": true,
          "internalType": "uint256",
          "name": "propertyId",
          "type": "uint256"
        },
        {
          "indexed": true,
          "internalType": "address",
          "name": "owner",
          "type": "address"
        }
      ],
      "name": "PropertyRegistered",
      "type": "event"
    },
    {
      "anonymous": false,
      "inputs": [
        {
          "indexed": true,
          "internalType": "uint256",
          "name": "propertyId",
          "type": "uint256"
        }
      ],
      "name": "PropertyVerified",
      "type": "event"
    },
    {
      "anonymous": false,
      "inputs": [
        {
          "indexed": true,
          "internalType": "bytes32",
          "name": "role",
          "type": "bytes32"
        },
        {
          "indexed": true,
          "internalType": "bytes32",
          "name": "previousAdminRole",
          "type": "bytes32"
        },
        {
          "indexed": true,
          "internalType": "bytes32",
          "name": "newAdminRole",
          "type": "bytes32"
        }
      ],
      "name": "RoleAdminChanged",
      "type": "event"
    },
    {
      "anonymous": false,
      "inputs": [
        {
          "indexed": true,
          "internalType": "bytes32",
          "name": "role",
          "type": "bytes32"
        },
        {
          "indexed": true,
          "internalType": "address",
          "name": "account",
          "type": "address"
        },
        {
          "indexed": true,
          "internalType": "address",
          "name": "sender",
          "type": "address"
        }
      ],
      "name": "RoleGranted",
      "type": "event"
    },
    {
      "anonymous": false,
      "inputs": [
        {
          "indexed": true,
          "internalType": "bytes32",
          "name": "role",
          "type": "bytes32"
        },
        {
          "indexed": true,
          "internalType": "address",
          "name": "account",
          "type": "address"
        }
      ],
      "name": "RoleGranted",
      "type": "event"
    },
    {
      "anonymous": false,
      "inputs": [
        {
          "indexed": true,
          "internalType": "bytes32",
          "name": "role",
          "type": "bytes32"
        },
        {
          "indexed": true,
          "internalType": "address",
          "name": "account",
          "type": "address"
        },
        {
          "indexed": true,
          "internalType": "address",
          "name": "sender",
          "type": "address"
        }
      ],
      "name": "RoleRevoked",
      "type": "event"
    },
    {
      "anonymous": false,
      "inputs": [
        {
          "indexed": true,
          "internalType": "bytes32",
          "name": "role",
          "type": "bytes32"
        },
        {
          "indexed": true,
          "internalType": "address",
          "name": "account",
          "type": "address"
        }
      ],
      "name": "RoleRevoked",
      "type": "event"
    },
    {
      "anonymous": false,
      "inputs": [
        {
          "indexed": true,
          "internalType": "address",
          "name": "from",
          "type": "address"
        },
        {
          "indexed": true,
          "internalType": "address",
          "name": "to",
          "type": "address"
        },
        {
          "indexed": true,
          "internalType": "uint256",
          "name": "tokenId",
          "type": "uint256"
        }
      ],
      "name": "Transfer",
      "type": "event"
    },
    {
      "anonymous": false,
      "inputs": [
        {
          "indexed": true,
          "internalType": "uint256",
          "name": "requestId",
          "type": "uint256"
        },
        {
          "indexed": true,
          "internalType": "uint256",
          "name": "propertyId",
          "type": "uint256"
        }
      ],
      "name": "TransferRequested",
      "type": "event"
    },
    {
      "anonymous": false,
      "inputs": [
        {
          "indexed": true,
          "internalType": "uint256",
          "name": "requestId",
          "type": "uint256"
        },
        {
          "indexed": false,
          "internalType": "enum LandRegistry.TransferStatus",
          "name": "status",
          "type": "uint8"
        }
      ],
      "name": "TransferStatusUpdated",
      "type": "event"
    },
    {
      "inputs": [],
      "name": "ADMIN_ROLE",
      "outputs": [
        {
          "internalType": "bytes32",
          "name": "",
          "type": "bytes32"
        }
      ],
      "stateMutability": "view",
      "type": "function"
    },
    {
      "inputs": [],
      "name": "DEFAULT_ADMIN_ROLE",
      "outputs": [
        {
          "internalType": "bytes32",
          "name": "",
          "type": "bytes32"
        }
      ],
      "stateMutability": "view",
      "type": "function"
    },
    {
      "inputs": [],
      "name": "INSPECTOR_ROLE",
      "outputs": [
        {
          "internalType": "bytes32",
          "name": "",
          "type": "bytes32"
        }
      ],
      "stateMutability": "view",
      "type": "function"
    },
    {
      "inputs": [],
      "name": "OWNER_ROLE",
      "outputs": [
        {
          "internalType": "bytes32",
          "name": "",
          "type": "bytes32"
        }
      ],
      "stateMutability": "view",
      "type": "function"
    },
    {
      "inputs": [],
      "name": "VERIFIER_ROLE",
      "outputs": [
        {
          "internalType": "bytes32",
          "name": "",
          "type": "bytes32"
        }
      ],
      "stateMutability": "view",
      "type": "function"
    },
    {
      "inputs": [
        {
          "internalType": "address",
          "name": "account",
          "type": "address"
        },
        {
          "internalType": "bytes32",
          "name": "role",
          "type": "bytes32"
        }
      ],
      "name": "addRole",
      "outputs": [],
      "stateMutability": "nonpayable",
      "type": "function"
    },
    {
      "inputs": [
        {
          "internalType": "address",
          "name": "to",
          "type": "address"
        },
        {
          "internalType": "uint256",
          "name": "tokenId",
          "type": "uint256"
        }
      ],
      "name": "approve",
      "outputs": [],
      "stateMutability": "nonpayable",
      "type": "function"
    },
    {
      "inputs": [
        {
          "internalType": "address",
          "name": "owner",
          "type": "address"
        }
      ],
      "name": "balanceOf",
      "outputs": [
        {
          "internalType": "uint256",
          "name": "",
          "type": "uint256"
        }
      ],
      "stateMutability": "view",
      "type": "function"
    },
    {
      "inputs": [
        {
          "internalType": "address",
          "name": "account",
          "type": "address"
        },
        {
          "internalType": "bytes32",
          "name": "role",
          "type": "bytes32"
        }
      ],
      "name": "checkRole",
      "outputs": [
        {
          "internalType": "bool",
          "name": "",
          "type": "bool"
        }
      ],
      "stateMutability": "view",
      "type": "function"
    },
    {
      "inputs": [],
      "name": "disputePeriod",
      "outputs": [
        {
          "internalType": "uint256",
          "name": "",
          "type": "uint256"
        }
      ],
      "stateMutability": "view",
      "type": "function"
    },
    {
      "inputs": [
        {
          "internalType": "uint256",
          "name": "tokenId",
          "type": "uint256"
        }
      ],
      "name": "getApproved",
      "outputs": [
        {
          "internalType": "address",
          "name": "",
          "type": "address"
        }
      ],
      "stateMutability": "view",
      "type": "function"
    },
    {
      "inputs": [
        {
          "internalType": "bytes32",
          "name": "role",
          "type": "bytes32"
        }
      ],
      "name": "getRoleAdmin",
      "outputs": [
        {
          "internalType": "bytes32",
          "name": "",
          "type": "bytes32"
        }
      ],
      "stateMutability": "view",
      "type": "function"
    },
    {
      "inputs": [
        {
          "internalType": "bytes32",
          "name": "role",
          "type": "bytes32"
        },
        {
          "internalType": "address",
          "name": "account",
          "type": "address"
        }
      ],
      "name": "grantRole",
      "outputs": [],
      "stateMutability": "nonpayable",
      "type": "function"
    },
    {
      "inputs": [
        {
          "internalType": "bytes32",
          "name": "role",
          "type": "bytes32"
        },
        {
          "internalType": "address",
          "name": "account",
          "type": "address"
        }
      ],
      "name": "hasRole",
      "outputs": [
        {
          "internalType": "bool",
          "name": "",
          "type": "bool"
        }
      ],
      "stateMutability": "view",
      "type": "function"
    },
    {
      "inputs": [
        {
          "internalType": "address",
          "name": "owner",
          "type": "address"
        },
        {
          "internalType": "address",
          "name": "operator",
          "type": "address"
        }
      ],
      "name": "isApprovedForAll",
      "outputs": [
        {
          "internalType": "bool",
          "name": "",
          "type": "bool"
        }
      ],
      "stateMutability": "view",
      "type": "function"
    },
    {
      "inputs": [],
      "name": "name",
      "outputs": [
        {
          "internalType": "string",
          "name": "",
          "type": "string"
        }
      ],
      "stateMutability": "view",
      "type": "function"
    },
    {
      "inputs": [
        {
          "internalType": "uint256",
          "name": "tokenId",
          "type": "uint256"
        }
      ],
      "name": "ownerOf",
      "outputs": [
        {
          "internalType": "address",
          "name": "",
          "type": "address"
        }
      ],
      "stateMutability": "view",
      "type": "function"
    },
    {
      "inputs": [
        {
          "internalType": "uint256",
          "name": "",
          "type": "uint256"
        }
      ],
      "name": "properties",
      "outputs": [
        {
          "internalType": "uint256",
          "name": "propertyId",
          "type": "uint256"
        },
        {
          "internalType": "string",
          "name": "location",
          "type": "string"
        },
        {
          "internalType": "string",
          "name": "coordinates",
          "type": "string"
        },
        {
          "internalType": "uint256",
          "name": "area",
          "type": "uint256"
        },
        {
          "internalType": "uint256",
          "name": "value",
          "type": "uint256"
        },
        {
          "internalType": "address",
          "name": "owner",
          "type": "address"
        },
        {
          "internalType": "bool",
          "name": "isVerified",
          "type": "bool"
        },
        {
          "internalType": "uint256",
          "name": "lastTransferDate",
          "type": "uint256"
        },
        {
          "internalType": "string",
          "name": "ipfsHash",
          "type": "string"
        },
        {
          "internalType": "enum LandRegistry.PropertyStatus",
          "name": "status",
          "type": "uint8"
        }
      ],
      "stateMutability": "view",
      "type": "function"
    },
    {
      "inputs": [
        {
          "internalType": "address",
          "name": "account",
          "type": "address"
        },
        {
          "internalType": "bytes32",
          "name": "role",
          "type": "bytes32"
        }
      ],
      "name": "removeRole",
      "outputs": [],
      "stateMutability": "nonpayable",
      "type": "function"
    },
    {
      "inputs": [
        {
          "internalType": "bytes32",
          "name": "role",
          "type": "bytes32"
        },
        {
          "internalType": "address",
          "name": "account",
          "type": "address"
        }
      ],
      "name": "renounceRole",
      "outputs": [],
      "stateMutability": "nonpayable",
      "type": "function"
    },
    {
      "inputs": [
        {
          "internalType": "bytes32",
          "name": "role",
          "type": "bytes32"
        },
        {
          "internalType": "address",
          "name": "account",
          "type": "address"
        }
      ],
      "name": "revokeRole",
      "outputs": [],
      "stateMutability": "nonpayable",
      "type": "function"
    },
    {
      "inputs": [
        {
          "internalType": "address",
          "name": "from",
          "type": "address"
        },
        {
          "internalType": "address",
          "name": "to",
          "type": "address"
        },
        {
          "internalType": "uint256",
          "name": "tokenId",
          "type": "uint256"
        }
      ],
      "name": "safeTransferFrom",
      "outputs": [],
      "stateMutability": "nonpayable",
      "type": "function"
    },
    {
      "inputs": [
        {
          "internalType": "address",
          "name": "from",
          "type": "address"
        },
        {
          "internalType": "address",
          "name": "to",
          "type": "address"
        },
        {
          "internalType": "uint256",
          "name": "tokenId",
          "type": "uint256"
        },
        {
          "internalType": "bytes",
          "name": "data",
          "type": "bytes"
        }
      ],
      "name": "safeTransferFrom",
      "outputs": [],
      "stateMutability": "nonpayable",
      "type": "function"
    },
    {
      "inputs": [
        {
          "internalType": "address",
          "name": "operator",
          "type": "address"
        },
        {
          "internalType": "bool",
          "name": "approved",
          "type": "bool"
        }
      ],
      "name": "setApprovalForAll",
      "outputs": [],
      "stateMutability": "nonpayable",
      "type": "function"
    },
    {
      "inputs": [],
      "name": "symbol",
      "outputs": [
        {
          "internalType": "string",
          "name": "",
          "type": "string"
        }
      ],
      "stateMutability": "view",
      "type": "function"
    },
    {
      "inputs": [
        {
          "internalType": "uint256",
          "name": "tokenId",
          "type": "uint256"
        }
      ],
      "name": "tokenURI",
      "outputs": [
        {
          "internalType": "string",
          "name": "",
          "type": "string"
        }
      ],
      "stateMutability": "view",
      "type": "function"
    },
    {
      "inputs": [
        {
          "internalType": "address",
          "name": "from",
          "type": "address"
        },
        {
          "internalType": "address",
          "name": "to",
          "type": "address"
        },
        {
          "internalType": "uint256",
          "name": "tokenId",
          "type": "uint256"
        }
      ],
      "name": "transferFrom",
      "outputs": [],
      "stateMutability": "nonpayable",
      "type": "function"
    },
    {
      "inputs": [
        {
          "internalType": "uint256",
          "name": "",
          "type": "uint256"
        }
      ],
      "name": "transferRequests",
      "outputs": [
        {
          "internalType": "uint256",
          "name": "requestId",
          "type": "uint256"
        },
        {
          "internalType": "uint256",
          "name": "propertyId",
          "type": "uint256"
        },
        {
          "internalType": "address",
          "name": "from",
          "type": "address"
        },
        {
          "internalType": "address",
          "name": "to",
          "type": "address"
        },
        {
          "internalType": "uint256",
          "name": "requestDate",
          "type": "uint256"
        },
        {
          "internalType": "enum LandRegistry.TransferStatus",
          "name": "status",
          "type": "uint8"
        },
        {
          "internalType": "string",
          "name": "reason",
          "type": "string"
        },
        {
          "internalType": "uint256",
          "name": "price",
          "type": "uint256"
        }
      ],
      "stateMutability": "view",
      "type": "function"
    },
    {
      "inputs": [],
      "name": "transferWaitingPeriod",
      "outputs": [
        {
          "internalType": "uint256",
          "name": "",
          "type": "uint256"
        }
      ],
      "stateMutability": "view",
      "type": "function"
    },
    {
      "inputs": [
        {
          "internalType": "address",
          "name": "",
          "type": "address"
        },
        {
          "internalType": "uint256",
          "name": "",
          "type": "uint256"
        }
      ],
      "name": "userProperties",
      "outputs": [
        {
          "internalType": "uint256",
          "name": "",
          "type": "uint256"
        }
      ],
      "stateMutability": "view",
      "type": "function"
    },
    {
      "inputs": [
        {
          "internalType": "bytes4",
          "name": "interfaceId",
          "type": "bytes4"
        }
      ],
      "name": "supportsInterface",
      "outputs": [
        {
          "internalType": "bool",
          "name": "",
          "type": "bool"
        }
      ],
      "stateMutability": "view",
      "type": "function"
    },
    {
      "inputs": [
        {
          "internalType": "string",
          "name": "location",
          "type": "string"
        },
        {
          "internalType": "string",
          "name": "coordinates",
          "type": "string"
        },
        {
          "internalType": "uint256",
          "name": "area",
          "type": "uint256"
        },
        {
          "internalType": "uint256",
          "name": "value",
          "type": "uint256"
        },
        {
          "internalType": "string",
          "name": "ipfsHash",
          "type": "string"
        }
      ],
      "name": "registerProperty",
      "outputs": [],
      "stateMutability": "nonpayable",
      "type": "function"
    },
    {
      "inputs": [
        {
          "internalType": "uint256",
          "name": "propertyId",
          "type": "uint256"
        }
      ],
      "name": "verifyProperty",
      "outputs": [],
      "stateMutability": "nonpayable",
      "type": "function"
    },
    {
      "inputs": [
        {
          "internalType": "uint256",
          "name": "propertyId",
          "type": "uint256"
        },
        {
          "internalType": "address",
          "name": "to",
          "type": "address"
        },
        {
          "internalType": "uint256",
          "name": "price",
          "type": "uint256"
        }
      ],
      "name": "initiateTransfer",
      "outputs": [],
      "stateMutability": "nonpayable",
      "type": "function"
    },
    {
      "inputs": [
        {
          "internalType": "uint256",
          "name": "requestId",
          "type": "uint256"
        }
      ],
      "name": "approveTransfer",
      "outputs": [],
      "stateMutability": "nonpayable",
      "type": "function"
    },
    {
      "inputs": [
        {
          "internalType": "uint256",
          "name": "requestId",
          "type": "uint256"
        }
      ],
      "name": "executeTransfer",
      "outputs": [],
      "stateMutability": "nonpayable",
      "type": "function"
    },
    {
      "inputs": [
        {
          "internalType": "uint256",
          "name": "propertyId",
          "type": "uint256"
        },
        {
          "internalType": "string",
          "name": "ipfsHash",
          "type": "string"
        }
      ],
      "name": "updateDocuments",
      "outputs": [],
      "stateMutability": "nonpayable",
      "type": "function"
    },
    {
      "inputs": [
        {
          "internalType": "uint256",
          "name": "propertyId",
          "type": "uint256"
        }
      ],
      "name": "getProperty",
      "outputs": [
        {
          "components": [
            {
              "internalType": "uint256",
              "name": "propertyId",
              "type": "uint256"
            },
            {
              "internalType": "string",
              "name": "location",
              "type": "string"
            },
            {
              "internalType": "string",
              "name": "coordinates",
              "type": "string"
            },
            {
              "internalType": "uint256",
              "name": "area",
              "type": "uint256"
            },
            {
              "internalType": "uint256",
              "name": "value",
              "type": "uint256"
            },
            {
              "internalType": "address",
              "name": "owner",
              "type": "address"
            },
            {
              "internalType": "bool",
              "name": "isVerified",
              "type": "bool"
            },
            {
              "internalType": "uint256",
              "name": "lastTransferDate",
              "type": "uint256"
            },
            {
              "internalType": "string",
              "name": "ipfsHash",
              "type": "string"
            },
            {
              "internalType": "enum LandRegistry.PropertyStatus",
              "name": "status",
              "type": "uint8"
            }
          ],
          "internalType": "struct LandRegistry.Property",
          "name": "",
          "type": "tuple"
        }
      ],
      "stateMutability": "view",
      "type": "function"
    },
    {
      "inputs": [
        {
          "internalType": "uint256",
          "name": "requestId",
          "type": "uint256"
        }
      ],
      "name": "getTransferRequest",
      "outputs": [
        {
          "components": [
            {
              "internalType": "uint256",
              "name": "requestId",
              "type": "uint256"
            },
            {
              "internalType": "uint256",
              "name": "propertyId",
              "type": "uint256"
            },
            {
              "internalType": "address",
              "name": "from",
              "type": "address"
            },
            {
              "internalType": "address",
              "name": "to",
              "type": "address"
            },
            {
              "internalType": "uint256",
              "name": "requestDate",
              "type": "uint256"
            },
            {
              "internalType": "enum LandRegistry.TransferStatus",
              "name": "status",
              "type": "uint8"
            },
            {
              "internalType": "string",
              "name": "reason",
              "type": "string"
            },
            {
              "internalType": "uint256",
              "name": "price",
              "type": "uint256"
            }
          ],
          "internalType": "struct LandRegistry.TransferRequest",
          "name": "",
          "type": "tuple"
        }
      ],
      "stateMutability": "view",
      "type": "function"
    },
    {
      "inputs": [
        {
          "internalType": "address",
          "name": "user",
          "type": "address"
        }
      ],
      "name": "getUserProperties",
      "outputs": [
        {
          "internalType": "uint256[]",
          "name": "",
          "type": "uint256[]"
        }
      ],
      "stateMutability": "view",
      "type": "function"
    }
  ],
  "bytecode": "0x608060405262093a80600c556203f480600d5534801561001d575f5ffd5b50604080518082018252600d81526c4c616e6420526567697374727960981b602080830191909152825180840190935260048352631310539160e21b9083015290336100695f826100b5565b6100937fa49807205ce4d355092ef5a8a18f56e8913cf4a201fbe287825b095693c21775826100b5565b5060016100a083826101f7565b5060026100ad82826101f7565b5050506102b1565b6100bf82826100c3565b5050565b5f828152602081815260408083206001600160a01b038516845290915290205460ff166100bf575f828152602081815260408083206001600160a01b03851684529091529020805460ff1916600117905561011b3390565b6001600160a01b0316816001600160a01b0316837f2f8788117e7eff1d82e926ec794901d17c78024a50270940304540a733656f0d60405160405180910390a45050565b634e487b7160e01b5f52604160045260245ffd5b600181811c9082168061018757607f821691505b6020821081036101a557634e487b7160e01b5f52602260045260245ffd5b50919050565b601f8211156101f257805f5260205f20601f840160051c810160208510156101d05750805b601f840160051c820191505b818110156101ef575f81556001016101dc565b50505b505050565b81516001600160401b038111156102105761021061015f565b6102248161021e8454610173565b846101ab565b6020601f821160018114610256575f831561023f5750848201515b5f19600385901b1c1916600184901b1784556101ef565b5f84815260208120601f198516915b828110156102855787850151825560209485019460019092019101610265565b50848210156102a257868401515f19600387901b60f8161c191681555b50505050600190811b01905550565b613392806102be5f395ff3fe608060405234801561000f575f5ffd5b506004361061023f575f3560e01c80636853920e11610135578063c87b56dd116100b4578063e58378bb11610079578063e58378bb1461054f578063e7705db614610576578063e985e9c51461059d578063f05d5752146105d8578063f7b10808146105eb575f5ffd5b8063c87b56dd146104dc578063cacca4a0146104ef578063d547741f14610502578063e2271c9f14610515578063e3a3c52214610528575f5ffd5b806399807e4c116100fa57806399807e4c1461047c578063a217fddf1461049c578063a22cb465146104a3578063a73f7f8a146104b6578063b88d4fde146104c9575f5ffd5b80636853920e1461042757806370a082311461043a57806375b238fc1461044d57806391d148541461046157806395d89b4114610474575f5ffd5b80632f2ff15d116101c157806342842e0e1161018657806342842e0e146103dc578063485bd992146103ef57806359ee1ca7146104025780635bf31d4d1461040b5780636352211e14610414575f5ffd5b80632f2ff15d1461037057806332665ffb1461038357806336568abe146103a357806340f50adb146103b65780634212a8ae146103c9575f5ffd5b8063081812fc11610207578063081812fc146102dc578063095ea7b31461030757806323b872dd1461031a578063248a9ca31461032d5780632ae8a7e31461035d575f5ffd5b806301ffc9a7146102435780630335c9c81461026b57806303486c4014610280578063060a3e61146102a757806306fdde03146102c7575b5f5ffd5b610256610251366004612930565b610614565b60405190151581526020015b60405180910390f35b61027e6102793660046129f4565b610624565b005b61029361028e366004612a95565b6107d3565b604051610262989796959493929190612b02565b6102ba6102b5366004612b7e565b6108ae565b6040516102629190612b97565b6102cf610917565b6040516102629190612bd9565b6102ef6102ea366004612a95565b6109a7565b6040516001600160a01b039091168152602001610262565b61027e610315366004612beb565b6109cc565b61027e610328366004612c13565b610ae5565b61034f61033b366004612a95565b5f9081526020819052604090206001015490565b604051908152602001610262565b61025661036b366004612beb565b610b16565b61027e61037e366004612c4d565b610b28565b610396610391366004612a95565b610b4c565b6040516102629190612c87565b61027e6103b1366004612c4d565b610da9565b61027e6103c4366004612d4a565b610e27565b61027e6103d7366004612a95565b6110cb565b61027e6103ea366004612c13565b611250565b61027e6103fd366004612d6c565b61126a565b61034f600c5481565b61034f600d5481565b6102ef610422366004612a95565b611337565b61027e610435366004612beb565b611396565b61034f610448366004612b7e565b611435565b61034f5f51602061333d5f395f51905f5281565b61025661046f366004612c4d565b6114b9565b6102cf6114e1565b61048f61048a366004612a95565b6114f0565b6040516102629190612db0565b61034f5f81565b61027e6104b1366004612e39565b611660565b61027e6104c4366004612beb565b61166b565b61027e6104d7366004612e72565b61170a565b6102cf6104ea366004612a95565b611742565b61027e6104fd366004612a95565b6117b1565b61027e610510366004612c4d565b6118de565b61034f610523366004612beb565b611902565b61034f7f273dcf2136c7d8ef632bb8ef13dbca69a8f36fa620c7468671b3153d46a211c081565b61034f7fb19546dff01e856fb3f010c267a7b1c60363cf8a4664e21cc89c26224620214e81565b61034f7f0ce23c3e399818cfee81a7ab0880f714e53d7672b08df0fa62f2843416e1ea0981565b6102566105ab366004612ee9565b6001600160a01b039182165f90815260066020908152604080832093909416825291909152205460ff1690565b61027e6105e6366004612a95565b61192d565b6105fe6105f9366004612a95565b611b05565b6040516102629a99989796959493929190612f11565b5f61061e82611cfb565b92915050565b610632600780546001019055565b5f61063c60075490565b9050604051806101400160405280828152602001878152602001868152602001858152602001848152602001336001600160a01b031681526020015f151581526020014281526020018381526020015f600281111561069d5761069d612aac565b90525f828152600960209081526040909120825181559082015160018201906106c69082613021565b50604082015160028201906106db9082613021565b50606082015160038201556080820151600482015560a082015160058201805460c08501511515600160a01b026001600160a81b03199091166001600160a01b039093169290921791909117905560e0820151600682015561010082015160078201906107489082613021565b5061012082015160088201805460ff1916600183600281111561076d5761076d612aac565b021790555050335f818152600b602090815260408220805460018101825590835291200183905561079f915082611d3a565b604051339082907ff16e2a0ca5373d3b3c5e53640bf2953ea25184f229ba20d421b5fc6a635e3945905f90a3505050505050565b600a6020525f90815260409020805460018201546002830154600384015460048501546005860154600687018054969795966001600160a01b03958616969490951694929360ff9092169261082790612f9e565b80601f016020809104026020016040519081016040528092919081815260200182805461085390612f9e565b801561089e5780601f106108755761010080835404028352916020019161089e565b820191905f5260205f20905b81548152906001019060200180831161088157829003601f168201915b5050505050908060070154905088565b6001600160a01b0381165f908152600b602090815260409182902080548351818402810184019094528084526060939283018282801561090b57602002820191905f5260205f20905b8154815260200190600101908083116108f7575b50505050509050919050565b60606001805461092690612f9e565b80601f016020809104026020016040519081016040528092919081815260200182805461095290612f9e565b801561099d5780601f106109745761010080835404028352916020019161099d565b820191905f5260205f20905b81548152906001019060200180831161098057829003601f168201915b5050505050905090565b5f6109b182611ec2565b505f908152600560205260409020546001600160a01b031690565b5f6109d682611337565b9050806001600160a01b0316836001600160a01b031603610a485760405162461bcd60e51b815260206004820152602160248201527f4552433732313a20617070726f76616c20746f2063757272656e74206f776e656044820152603960f91b60648201526084015b60405180910390fd5b336001600160a01b0382161480610a645750610a6481336105ab565b610ad65760405162461bcd60e51b815260206004820152603d60248201527f4552433732313a20617070726f76652063616c6c6572206973206e6f7420746f60448201527f6b656e206f776e6572206f7220617070726f76656420666f7220616c6c0000006064820152608401610a3f565b610ae08383611f23565b505050565b610aef3382611f90565b610b0b5760405162461bcd60e51b8152600401610a3f906130dc565b610ae083838361200d565b5f610b2182846114b9565b9392505050565b5f82815260208190526040902060010154610b428161216f565b610ae08383612179565b610b546128b4565b60095f8381526020019081526020015f20604051806101400160405290815f8201548152602001600182018054610b8a90612f9e565b80601f0160208091040260200160405190810160405280929190818152602001828054610bb690612f9e565b8015610c015780601f10610bd857610100808354040283529160200191610c01565b820191905f5260205f20905b815481529060010190602001808311610be457829003601f168201915b50505050508152602001600282018054610c1a90612f9e565b80601f0160208091040260200160405190810160405280929190818152602001828054610c4690612f9e565b8015610c915780601f10610c6857610100808354040283529160200191610c91565b820191905f5260205f20905b815481529060010190602001808311610c7457829003601f168201915b5050509183525050600382015460208201526004820154604082015260058201546001600160a01b0381166060830152600160a01b900460ff1615156080820152600682015460a082015260078201805460c090920191610cf190612f9e565b80601f0160208091040260200160405190810160405280929190818152602001828054610d1d90612f9e565b8015610d685780601f10610d3f57610100808354040283529160200191610d68565b820191905f5260205f20905b815481529060010190602001808311610d4b57829003601f168201915b5050509183525050600882015460209091019060ff166002811115610d8f57610d8f612aac565b6002811115610da057610da0612aac565b90525092915050565b6001600160a01b0381163314610e195760405162461bcd60e51b815260206004820152602f60248201527f416363657373436f6e74726f6c3a2063616e206f6e6c792072656e6f756e636560448201526e103937b632b9903337b91039b2b63360891b6064820152608401610a3f565b610e2382826121fc565b5050565b33610e3184611337565b6001600160a01b031614610e805760405162461bcd60e51b81526020600482015260166024820152752737ba103a343290383937b832b93a3c9037bbb732b960511b6044820152606401610a3f565b5f83815260096020526040902060050154600160a01b900460ff16610edf5760405162461bcd60e51b8152602060048201526015602482015274141c9bdc195c9d1e481b9bdd081d995c9a599a5959605a1b6044820152606401610a3f565b5f8381526009602052604081206008015460ff166002811115610f0457610f04612aac565b14610f4a5760405162461bcd60e51b815260206004820152601660248201527550726f7065727479206e6f7420617661696c61626c6560501b6044820152606401610a3f565b610f58600880546001019055565b5f610f6260085490565b9050604051806101000160405280828152602001858152602001336001600160a01b03168152602001846001600160a01b031681526020014281526020015f6004811115610fb257610fb2612aac565b815260408051602081810183525f80835281850192909252928201869052848152600a83528190208351815591830151600180840191909155908301516002830180546001600160a01b039283166001600160a01b0319918216179091556060850151600385018054919093169116179055608083015160048084019190915560a08401516005840180549193909260ff1990921691849081111561105957611059612aac565b021790555060c082015160068201906110729082613021565b5060e091909101516007909101555f84815260096020526040808220600801805460ff1916600117905551859183917fffef5a93d6bed2f45e66c7f94d7c2af23fc35e33fc7a95dd39d3b367b9fade2d9190a350505050565b6110f57f0ce23c3e399818cfee81a7ab0880f714e53d7672b08df0fa62f2843416e1ea09336114b9565b6111415760405162461bcd60e51b815260206004820152601860248201527f43616c6c6572206973206e6f74206120766572696669657200000000000000006044820152606401610a3f565b5f81815260096020526040812054900361119d5760405162461bcd60e51b815260206004820152601760248201527f50726f706572747920646f6573206e6f742065786973740000000000000000006044820152606401610a3f565b5f81815260096020526040902060050154600160a01b900460ff16156112055760405162461bcd60e51b815260206004820152601960248201527f50726f706572747920616c7265616479207665726966696564000000000000006044820152606401610a3f565b5f81815260096020526040808220600501805460ff60a01b1916600160a01b1790555182917f251541517e7fdfbb2cb6b8c70a4fdaa5055dd01495174bcb394e5c6934ae634191a250565b610ae083838360405180602001604052805f81525061170a565b5f828152600960205260409020600501546001600160a01b03163314806112a357506112a35f51602061333d5f395f51905f52336114b9565b6112e05760405162461bcd60e51b815260206004820152600e60248201526d139bdd08185d5d1a1bdc9a5e995960921b6044820152606401610a3f565b5f8281526009602052604090206007016112fa8282613021565b50817fdfd831f98c865506740193f5a1c6ac2a422bb7abee368f6a83b0241a47dc65e58260405161132b9190612bd9565b60405180910390a25050565b5f818152600360205260408120546001600160a01b03168061061e5760405162461bcd60e51b8152602060048201526018602482015277115490cdcc8c4e881a5b9d985b1a59081d1bdad95b88125160421b6044820152606401610a3f565b6113ad5f51602061333d5f395f51905f52336114b9565b6113f25760405162461bcd60e51b815260206004820152601660248201527521b0b63632b91034b9903737ba1030b71030b236b4b760511b6044820152606401610a3f565b6113fc81836118de565b6040516001600160a01b0383169082907f155aaafb6329a2098580462df33ec4b7441b19729b9601c5fc17ae1cf99a8a52905f90a35050565b5f6001600160a01b03821661149e5760405162461bcd60e51b815260206004820152602960248201527f4552433732313a2061646472657373207a65726f206973206e6f7420612076616044820152683634b21037bbb732b960b91b6064820152608401610a3f565b506001600160a01b03165f9081526004602052604090205490565b5f918252602082815260408084206001600160a01b0393909316845291905290205460ff1690565b60606002805461092690612f9e565b60408051610100810182525f8082526020820181905291810182905260608082018390526080820183905260a0820183905260c082015260e08101919091525f828152600a60209081526040918290208251610100810184528154815260018201549281019290925260028101546001600160a01b0390811693830193909352600381015490921660608201526004808301546080830152600583015491929160a084019160ff909116908111156115aa576115aa612aac565b60048111156115bb576115bb612aac565b81526020016006820180546115cf90612f9e565b80601f01602080910402602001604051908101604052809291908181526020018280546115fb90612f9e565b80156116465780601f1061161d57610100808354040283529160200191611646565b820191905f5260205f20905b81548152906001019060200180831161162957829003601f168201915b505050505081526020016007820154815250509050919050565b610e23338383612260565b6116825f51602061333d5f395f51905f52336114b9565b6116c75760405162461bcd60e51b815260206004820152601660248201527521b0b63632b91034b9903737ba1030b71030b236b4b760511b6044820152606401610a3f565b6116d18183610b28565b6040516001600160a01b0383169082907f2ae6a113c0ed5b78a53413ffbb7679881f11145ccfba4fb92e863dfcd5a1d2f3905f90a35050565b6117143383611f90565b6117305760405162461bcd60e51b8152600401610a3f906130dc565b61173c8484848461232d565b50505050565b606061174d82611ec2565b5f61176260408051602081019091525f815290565b90505f8151116117805760405180602001604052805f815250610b21565b8061178a84612360565b60405160200161179b929190613140565b6040516020818303038152906040529392505050565b6117db7f273dcf2136c7d8ef632bb8ef13dbca69a8f36fa620c7468671b3153d46a211c0336114b9565b6118275760405162461bcd60e51b815260206004820152601a60248201527f43616c6c6572206973206e6f7420616e20696e73706563746f720000000000006044820152606401610a3f565b5f818152600a6020526040812090600582015460ff16600481111561184e5761184e612aac565b1461189b5760405162461bcd60e51b815260206004820152601760248201527f496e76616c6964207472616e73666572207374617475730000000000000000006044820152606401610a3f565b60058101805460ff1916600190811790915560405183917fdf77f14973541090191994f82bbd6e1351d130c6af0145c9f9fc37e7fca9cfa89161132b9190613154565b5f828152602081905260409020600101546118f88161216f565b610ae083836121fc565b600b602052815f5260405f20818154811061191b575f80fd5b905f5260205f20015f91509150505481565b5f818152600a602052604090206001600582015460ff16600481111561195557611955612aac565b1461199a5760405162461bcd60e51b8152602060048201526015602482015274151c985b9cd9995c881b9bdd08185c1c1c9bdd9959605a1b6044820152606401610a3f565b600c5481600401546119ac9190613176565b4210156119fb5760405162461bcd60e51b815260206004820152601760248201527f57616974696e6720706572696f64206e6f74206f7665720000000000000000006044820152606401610a3f565b6001810180545f90815260096020526040902060038301546005820180546001600160a01b0319166001600160a01b0392831617905542600683015560088201805460ff19169055600284015492549192611a58929116906123f1565b6003808301546001600160a01b03165f908152600b60209081526040822060018087015482548083018455928552929093200155600584018054909160ff1990911690830217905550600282015460038301546001840154611ac7926001600160a01b0390811692169061200d565b827fdf77f14973541090191994f82bbd6e1351d130c6af0145c9f9fc37e7fca9cfa86003604051611af89190613154565b60405180910390a2505050565b60096020525f908152604090208054600182018054919291611b2690612f9e565b80601f0160208091040260200160405190810160405280929190818152602001828054611b5290612f9e565b8015611b9d5780601f10611b7457610100808354040283529160200191611b9d565b820191905f5260205f20905b815481529060010190602001808311611b8057829003601f168201915b505050505090806002018054611bb290612f9e565b80601f0160208091040260200160405190810160405280929190818152602001828054611bde90612f9e565b8015611c295780601f10611c0057610100808354040283529160200191611c29565b820191905f5260205f20905b815481529060010190602001808311611c0c57829003601f168201915b505050506003830154600484015460058501546006860154600787018054969794969395506001600160a01b03831694600160a01b90930460ff1693919291611c7190612f9e565b80601f0160208091040260200160405190810160405280929190818152602001828054611c9d90612f9e565b8015611ce85780601f10611cbf57610100808354040283529160200191611ce8565b820191905f5260205f20905b815481529060010190602001808311611ccb57829003601f168201915b5050506008909301549192505060ff168a565b5f6001600160e01b031982166380ac58cd60e01b1480611d2b57506001600160e01b03198216635b5e139f60e01b145b8061061e575061061e826124ab565b6001600160a01b038216611d905760405162461bcd60e51b815260206004820181905260248201527f4552433732313a206d696e7420746f20746865207a65726f20616464726573736044820152606401610a3f565b5f818152600360205260409020546001600160a01b031615611df45760405162461bcd60e51b815260206004820152601c60248201527f4552433732313a20746f6b656e20616c7265616479206d696e746564000000006044820152606401610a3f565b5f818152600360205260409020546001600160a01b031615611e585760405162461bcd60e51b815260206004820152601c60248201527f4552433732313a20746f6b656e20616c7265616479206d696e746564000000006044820152606401610a3f565b6001600160a01b0382165f81815260046020908152604080832080546001019055848352600390915280822080546001600160a01b0319168417905551839291907fddf252ad1be2c89b69c2b068fc378daa952ba7f163c4a11628f55a4df523b3ef908290a45050565b5f818152600360205260409020546001600160a01b0316611f205760405162461bcd60e51b8152602060048201526018602482015277115490cdcc8c4e881a5b9d985b1a59081d1bdad95b88125160421b6044820152606401610a3f565b50565b5f81815260056020526040902080546001600160a01b0319166001600160a01b0384169081179091558190611f5782611337565b6001600160a01b03167f8c5be1e5ebec7d5bd14f71427d1e84f3dd0314c0f7b2291e5b200ac8c7c3b92560405160405180910390a45050565b5f5f611f9b83611337565b9050806001600160a01b0316846001600160a01b03161480611fe157506001600160a01b038082165f9081526006602090815260408083209388168352929052205460ff165b806120055750836001600160a01b0316611ffa846109a7565b6001600160a01b0316145b949350505050565b826001600160a01b031661202082611337565b6001600160a01b0316146120465760405162461bcd60e51b8152600401610a3f90613189565b6001600160a01b0382166120a85760405162461bcd60e51b8152602060048201526024808201527f4552433732313a207472616e7366657220746f20746865207a65726f206164646044820152637265737360e01b6064820152608401610a3f565b826001600160a01b03166120bb82611337565b6001600160a01b0316146120e15760405162461bcd60e51b8152600401610a3f90613189565b5f81815260056020908152604080832080546001600160a01b03199081169091556001600160a01b038781168086526004855283862080545f1901905590871680865283862080546001019055868652600390945282852080549092168417909155905184937fddf252ad1be2c89b69c2b068fc378daa952ba7f163c4a11628f55a4df523b3ef91a4505050565b611f2081336124df565b61218382826114b9565b610e23575f828152602081815260408083206001600160a01b03851684529091529020805460ff191660011790556121b83390565b6001600160a01b0316816001600160a01b0316837f2f8788117e7eff1d82e926ec794901d17c78024a50270940304540a733656f0d60405160405180910390a45050565b61220682826114b9565b15610e23575f828152602081815260408083206001600160a01b0385168085529252808320805460ff1916905551339285917ff6391f5c32d9c69d2a47ea670b442974b53935d1edc7fd64eb21e047a839171b9190a45050565b816001600160a01b0316836001600160a01b0316036122c15760405162461bcd60e51b815260206004820152601960248201527f4552433732313a20617070726f766520746f2063616c6c6572000000000000006044820152606401610a3f565b6001600160a01b038381165f81815260066020908152604080832094871680845294825291829020805460ff191686151590811790915591519182527f17307eab39ab6107e8899845ad3d59bd9653f200f220920489ca2b5937696c31910160405180910390a3505050565b61233884848461200d565b61234484848484612538565b61173c5760405162461bcd60e51b8152600401610a3f906131ce565b60605f61236c83612635565b60010190505f8167ffffffffffffffff81111561238b5761238b61294b565b6040519080825280601f01601f1916602001820160405280156123b5576020820181803683370190505b5090508181016020015b5f19016f181899199a1a9b1b9c1cb0b131b232b360811b600a86061a8153600a85049450846123bf575b509392505050565b6001600160a01b0382165f908152600b60205260408120905b815481101561173c578282828154811061242657612426613220565b905f5260205f200154036124a3578154829061244490600190613234565b8154811061245457612454613220565b905f5260205f20015482828154811061246f5761246f613220565b905f5260205f2001819055508180548061248b5761248b613247565b600190038181905f5260205f20015f9055905561173c565b60010161240a565b5f6001600160e01b03198216637965db0b60e01b148061061e57506301ffc9a760e01b6001600160e01b031983161461061e565b6124e982826114b9565b610e23576124f68161270c565b61250183602061271e565b60405160200161251292919061325b565b60408051601f198184030181529082905262461bcd60e51b8252610a3f91600401612bd9565b5f6001600160a01b0384163b1561262a57604051630a85bd0160e11b81526001600160a01b0385169063150b7a029061257b9033908990889088906004016132b9565b6020604051808303815f875af19250505080156125b5575060408051601f3d908101601f191682019092526125b2918101906132f5565b60015b612610573d8080156125e2576040519150601f19603f3d011682016040523d82523d5f602084013e6125e7565b606091505b5080515f036126085760405162461bcd60e51b8152600401610a3f906131ce565b805181602001fd5b6001600160e01b031916630a85bd0160e11b149050612005565b506001949350505050565b5f8072184f03e93ff9f4daa797ed6e38ed64bf6a1f0160401b83106126735772184f03e93ff9f4daa797ed6e38ed64bf6a1f0160401b830492506040015b6d04ee2d6d415b85acef8100000000831061269f576d04ee2d6d415b85acef8100000000830492506020015b662386f26fc1000083106126bd57662386f26fc10000830492506010015b6305f5e10083106126d5576305f5e100830492506008015b61271083106126e957612710830492506004015b606483106126fb576064830492506002015b600a831061061e5760010192915050565b606061061e6001600160a01b03831660145b60605f61272c836002613310565b612737906002613176565b67ffffffffffffffff81111561274f5761274f61294b565b6040519080825280601f01601f191660200182016040528015612779576020820181803683370190505b509050600360fc1b815f8151811061279357612793613220565b60200101906001600160f81b03191690815f1a905350600f60fb1b816001815181106127c1576127c1613220565b60200101906001600160f81b03191690815f1a9053505f6127e3846002613310565b6127ee906001613176565b90505b6001811115612865576f181899199a1a9b1b9c1cb0b131b232b360811b85600f166010811061282257612822613220565b1a60f81b82828151811061283857612838613220565b60200101906001600160f81b03191690815f1a90535060049490941c9361285e81613327565b90506127f1565b508315610b215760405162461bcd60e51b815260206004820181905260248201527f537472696e67733a20686578206c656e67746820696e73756666696369656e746044820152606401610a3f565b6040518061014001604052805f815260200160608152602001606081526020015f81526020015f81526020015f6001600160a01b031681526020015f151581526020015f8152602001606081526020015f600281111561291657612916612aac565b905290565b6001600160e01b031981168114611f20575f5ffd5b5f60208284031215612940575f5ffd5b8135610b218161291b565b634e487b7160e01b5f52604160045260245ffd5b5f5f67ffffffffffffffff8411156129795761297961294b565b50604051601f19601f85018116603f0116810181811067ffffffffffffffff821117156129a8576129a861294b565b6040528381529050808284018510156129bf575f5ffd5b838360208301375f60208583010152509392505050565b5f82601f8301126129e5575f5ffd5b610b218383356020850161295f565b5f5f5f5f5f60a08688031215612a08575f5ffd5b853567ffffffffffffffff811115612a1e575f5ffd5b612a2a888289016129d6565b955050602086013567ffffffffffffffff811115612a46575f5ffd5b612a52888289016129d6565b9450506040860135925060608601359150608086013567ffffffffffffffff811115612a7c575f5ffd5b612a88888289016129d6565b9150509295509295909350565b5f60208284031215612aa5575f5ffd5b5035919050565b634e487b7160e01b5f52602160045260245ffd5b60058110612ad057612ad0612aac565b9052565b5f81518084528060208401602086015e5f602082860101526020601f19601f83011685010191505092915050565b888152602081018890526001600160a01b0387811660408301528616606082015260808101859052612b3760a0820185612ac0565b61010060c08201525f612b4e610100830185612ad4565b90508260e08301529998505050505050505050565b80356001600160a01b0381168114612b79575f5ffd5b919050565b5f60208284031215612b8e575f5ffd5b610b2182612b63565b602080825282518282018190525f918401906040840190835b81811015612bce578351835260209384019390920191600101612bb0565b509095945050505050565b602081525f610b216020830184612ad4565b5f5f60408385031215612bfc575f5ffd5b612c0583612b63565b946020939093013593505050565b5f5f5f60608486031215612c25575f5ffd5b612c2e84612b63565b9250612c3c60208501612b63565b929592945050506040919091013590565b5f5f60408385031215612c5e575f5ffd5b82359150612c6e60208401612b63565b90509250929050565b60038110612ad057612ad0612aac565b60208152815160208201525f60208301516101406040840152612cae610160840182612ad4565b90506040840151601f19848303016060850152612ccb8282612ad4565b91505060608401516080840152608084015160a084015260a0840151612cfc60c08501826001600160a01b03169052565b5060c084015180151560e08501525060e0840151610100840152610100840151601f1984830301610120850152612d338282612ad4565b9150506101208401516123e9610140850182612c77565b5f5f5f60608486031215612d5c575f5ffd5b83359250612c3c60208501612b63565b5f5f60408385031215612d7d575f5ffd5b82359150602083013567ffffffffffffffff811115612d9a575f5ffd5b612da6858286016129d6565b9150509250929050565b60208152815160208201526020820151604082015260018060a01b03604083015116606082015260018060a01b036060830151166080820152608082015160a08201525f60a0830151612e0660c0840182612ac0565b5060c083015161010060e0840152612e22610120840182612ad4565b905060e08401516101008401528091505092915050565b5f5f60408385031215612e4a575f5ffd5b612e5383612b63565b915060208301358015158114612e67575f5ffd5b809150509250929050565b5f5f5f5f60808587031215612e85575f5ffd5b612e8e85612b63565b9350612e9c60208601612b63565b925060408501359150606085013567ffffffffffffffff811115612ebe575f5ffd5b8501601f81018713612ece575f5ffd5b612edd8782356020840161295f565b91505092959194509250565b5f5f60408385031215612efa575f5ffd5b612f0383612b63565b9150612c6e60208401612b63565b8a815261014060208201525f612f2b61014083018c612ad4565b8281036040840152612f3d818c612ad4565b606084018b9052608084018a90526001600160a01b03891660a085015287151560c085015260e084018790528381036101008501529050612f7e8186612ad4565b915050612f8f610120830184612c77565b9b9a5050505050505050505050565b600181811c90821680612fb257607f821691505b602082108103612fd057634e487b7160e01b5f52602260045260245ffd5b50919050565b601f821115610ae057805f5260205f20601f840160051c81016020851015612ffb5750805b601f840160051c820191505b8181101561301a575f8155600101613007565b5050505050565b815167ffffffffffffffff81111561303b5761303b61294b565b61304f816130498454612f9e565b84612fd6565b6020601f821160018114613081575f831561306a5750848201515b5f19600385901b1c1916600184901b17845561301a565b5f84815260208120601f198516915b828110156130b05787850151825560209485019460019092019101613090565b50848210156130cd57868401515f19600387901b60f8161c191681555b50505050600190811b01905550565b6020808252602d908201527f4552433732313a2063616c6c6572206973206e6f7420746f6b656e206f776e6560408201526c1c881bdc88185c1c1c9bdd9959609a1b606082015260800190565b5f81518060208401855e5f93019283525090919050565b5f61200561314e8386613129565b84613129565b6020810161061e8284612ac0565b634e487b7160e01b5f52601160045260245ffd5b8082018082111561061e5761061e613162565b60208082526025908201527f4552433732313a207472616e736665722066726f6d20696e636f72726563742060408201526437bbb732b960d91b606082015260800190565b60208082526032908201527f4552433732313a207472616e7366657220746f206e6f6e20455243373231526560408201527131b2b4bb32b91034b6b83632b6b2b73a32b960711b606082015260800190565b634e487b7160e01b5f52603260045260245ffd5b8181038181111561061e5761061e613162565b634e487b7160e01b5f52603160045260245ffd5b7f416363657373436f6e74726f6c3a206163636f756e742000000000000000000081525f61328c6017830185613129565b7001034b99036b4b9b9b4b733903937b6329607d1b81526132b06011820185613129565b95945050505050565b6001600160a01b03858116825284166020820152604081018390526080606082018190525f906132eb90830184612ad4565b9695505050505050565b5f60208284031215613305575f5ffd5b8151610b218161291b565b808202811582820484141761061e5761061e613162565b5f8161333557613335613162565b505f19019056fea49807205ce4d355092ef5a8a18f56e8913cf4a201fbe287825b095693c21775a2646970667358221220a35a998ff8d8a8dff192d87b384255ccad5861f4bacf185a5bc629521c036ebc64736f6c634300081c0033",
  "immutableReferences": {},
  "source": "// SPDX-License-Identifier: MIT\npragma solidity ^0.8.0;\n\nimport \"./AccessControl.sol\";\nimport \"@openzeppelin/contracts/token/ERC721/ERC721.sol\";\nimport \"@openzeppelin/contracts/utils/Counters.sol\";\n\ncontract LandRegistry is LandRegistryAccess, ERC721 {\n    using Counters for Counters.Counter;\n    \n    struct Property {\n        uint256 propertyId;\n        string location;\n        string coordinates;\n        uint256 area;\n        uint256 value;\n        address owner;\n        bool isVerified;\n        uint256 lastTransferDate;\n        string ipfsHash;  // For property documents\n        PropertyStatus status;\n    }\n\n    struct TransferRequest {\n        uint256 requestId;\n        uint256 propertyId;\n        address from;\n        address to;\n        uint256 requestDate;\n        TransferStatus status;\n        string reason;\n        uint256 price;\n    }\n\n    enum PropertyStatus { Available, PendingTransfer, Locked }\n    enum TransferStatus { Pending, Approved, Rejected, Completed, Cancelled }\n\n    Counters.Counter private _propertyIds;\n    Counters.Counter private _transferIds;\n\n    mapping(uint256 => Property) public properties;\n    mapping(uint256 => TransferRequest) public transferRequests;\n    mapping(address => uint256[]) public userProperties;\n    \n    uint256 public transferWaitingPeriod = 7 days;\n    uint256 public disputePeriod = 3 days;\n\n    event PropertyRegistered(uint256 indexed propertyId, address indexed owner);\n    event TransferRequested(uint256 indexed requestId, uint256 indexed propertyId);\n    event TransferStatusUpdated(uint256 indexed requestId, TransferStatus status);\n    event PropertyVerified(uint256 indexed propertyId);\n    event DocumentsUpdated(uint256 indexed propertyId, string ipfsHash);\n\n    constructor() \n        ERC721(\"Land Registry\", \"LAND\")\n        LandRegistryAccess(msg.sender)\n    {}\n\n    function supportsInterface(bytes4 interfaceId) \n        public \n        view \n        virtual \n        override(ERC721, AccessControl) \n        returns (bool) \n    {\n        return super.supportsInterface(interfaceId);\n    }\n\n    function registerProperty(\n        string memory location,\n        string memory coordinates,\n        uint256 area,\n        uint256 value,\n        string memory ipfsHash\n    ) public {\n        _propertyIds.increment();\n        uint256 newPropertyId = _propertyIds.current();\n\n        properties[newPropertyId] = Property({\n            propertyId: newPropertyId,\n            location: location,\n            coordinates: coordinates,\n            area: area,\n            value: value,\n            owner: msg.sender,\n            isVerified: false,\n            lastTransferDate: block.timestamp,\n            ipfsHash: ipfsHash,\n            status: PropertyStatus.Available\n        });\n\n        userProperties[msg.sender].push(newPropertyId);\n        _mint(msg.sender, newPropertyId);\n        \n        emit PropertyRegistered(newPropertyId, msg.sender);\n    }\n\n    function verifyProperty(uint256 propertyId) public onlyVerifier {\n        require(properties[propertyId].propertyId != 0, \"Property does not exist\");\n        require(!properties[propertyId].isVerified, \"Property already verified\");\n        \n        properties[propertyId].isVerified = true;\n        emit PropertyVerified(propertyId);\n    }\n\n    function initiateTransfer(\n        uint256 propertyId,\n        address to,\n        uint256 price\n    ) public {\n        require(ownerOf(propertyId) == msg.sender, \"Not the property owner\");\n        require(properties[propertyId].isVerified, \"Property not verified\");\n        require(properties[propertyId].status == PropertyStatus.Available, \"Property not available\");\n\n        _transferIds.increment();\n        uint256 newTransferId = _transferIds.current();\n\n        transferRequests[newTransferId] = TransferRequest({\n            requestId: newTransferId,\n            propertyId: propertyId,\n            from: msg.sender,\n            to: to,\n            requestDate: block.timestamp,\n            status: TransferStatus.Pending,\n            reason: \"\",\n            price: price\n        });\n\n        properties[propertyId].status = PropertyStatus.PendingTransfer;\n        \n        emit TransferRequested(newTransferId, propertyId);\n    }\n\n    function approveTransfer(uint256 requestId) public onlyInspector {\n        TransferRequest storage request = transferRequests[requestId];\n        require(request.status == TransferStatus.Pending, \"Invalid transfer status\");\n        \n        request.status = TransferStatus.Approved;\n        emit TransferStatusUpdated(requestId, TransferStatus.Approved);\n    }\n\n    function executeTransfer(uint256 requestId) public {\n        TransferRequest storage request = transferRequests[requestId];\n        require(request.status == TransferStatus.Approved, \"Transfer not approved\");\n        require(\n            block.timestamp >= request.requestDate + transferWaitingPeriod,\n            \"Waiting period not over\"\n        );\n\n        Property storage property = properties[request.propertyId];\n        \n        // Update property details\n        property.owner = request.to;\n        property.lastTransferDate = block.timestamp;\n        property.status = PropertyStatus.Available;\n        \n        // Update user properties arrays\n        removePropertyFromUser(request.from, request.propertyId);\n        userProperties[request.to].push(request.propertyId);\n        \n        // Update transfer status\n        request.status = TransferStatus.Completed;\n        \n        // Transfer NFT\n        _transfer(request.from, request.to, request.propertyId);\n        \n        emit TransferStatusUpdated(requestId, TransferStatus.Completed);\n    }\n\n    function updateDocuments(uint256 propertyId, string memory ipfsHash) public {\n        require(properties[propertyId].owner == msg.sender || hasRole(ADMIN_ROLE, msg.sender), \n                \"Not authorized\");\n        \n        properties[propertyId].ipfsHash = ipfsHash;\n        emit DocumentsUpdated(propertyId, ipfsHash);\n    }\n\n    function getProperty(uint256 propertyId) public view returns (Property memory) {\n        return properties[propertyId];\n    }\n\n    function getTransferRequest(uint256 requestId) public view returns (TransferRequest memory) {\n        return transferRequests[requestId];\n    }\n\n    function getUserProperties(address user) public view returns (uint256[] memory) {\n        return userProperties[user];\n    }\n\n    // Internal functions\n    function removePropertyFromUser(address user, uint256 propertyId) internal {\n        uint256[] storage userProps = userProperties[user];\n        for (uint i = 0; i < userProps.length; i++) {\n            if (userProps[i] == propertyId) {\n                userProps[i] = userProps[userProps.length - 1];\n                userProps.pop();\n                break;\n            }\n        }\n    }\n}\n",
  "sourcePath": "c:\\Users\\Admin\\Desktop\\ProCons\\land-registry\\contracts\\LandRegistry.sol",
  "compiler": {
    "name": "solc",
    "version": "0.8.28+commit.7893614a.Emscripten.clang"
  },
  "schemaVersion": "3.4.16",
  "updatedAt": "2024-11-28T06:26:28.285Z",
  "devdoc": {
    "events": {
      "Approval(address,address,uint256)": {
        "details": "Emitted when `owner` enables `approved` to manage the `tokenId` token."
      },
      "ApprovalForAll(address,address,bool)": {
        "details": "Emitted when `owner` enables or disables (`approved`) `operator` to manage all of its assets."
      },
      "RoleAdminChanged(bytes32,bytes32,bytes32)": {
        "details": "Emitted when `newAdminRole` is set as ``role``'s admin role, replacing `previousAdminRole` `DEFAULT_ADMIN_ROLE` is the starting admin for all roles, despite {RoleAdminChanged} not being emitted signaling this. _Available since v3.1._"
      },
      "RoleGranted(bytes32,address,address)": {
        "details": "Emitted when `account` is granted `role`. `sender` is the account that originated the contract call, an admin role bearer except when using {AccessControl-_setupRole}."
      },
      "RoleRevoked(bytes32,address,address)": {
        "details": "Emitted when `account` is revoked `role`. `sender` is the account that originated the contract call:   - if using `revokeRole`, it is the admin role bearer   - if using `renounceRole`, it is the role bearer (i.e. `account`)"
      },
      "Transfer(address,address,uint256)": {
        "details": "Emitted when `tokenId` token is transferred from `from` to `to`."
      }
    },
    "kind": "dev",
    "methods": {
      "approve(address,uint256)": {
        "details": "See {IERC721-approve}."
      },
      "balanceOf(address)": {
        "details": "See {IERC721-balanceOf}."
      },
      "getApproved(uint256)": {
        "details": "See {IERC721-getApproved}."
      },
      "getRoleAdmin(bytes32)": {
        "details": "Returns the admin role that controls `role`. See {grantRole} and {revokeRole}. To change a role's admin, use {_setRoleAdmin}."
      },
      "grantRole(bytes32,address)": {
        "details": "Grants `role` to `account`. If `account` had not been already granted `role`, emits a {RoleGranted} event. Requirements: - the caller must have ``role``'s admin role. May emit a {RoleGranted} event."
      },
      "hasRole(bytes32,address)": {
        "details": "Returns `true` if `account` has been granted `role`."
      },
      "isApprovedForAll(address,address)": {
        "details": "See {IERC721-isApprovedForAll}."
      },
      "name()": {
        "details": "See {IERC721Metadata-name}."
      },
      "ownerOf(uint256)": {
        "details": "See {IERC721-ownerOf}."
      },
      "renounceRole(bytes32,address)": {
        "details": "Revokes `role` from the calling account. Roles are often managed via {grantRole} and {revokeRole}: this function's purpose is to provide a mechanism for accounts to lose their privileges if they are compromised (such as when a trusted device is misplaced). If the calling account had been revoked `role`, emits a {RoleRevoked} event. Requirements: - the caller must be `account`. May emit a {RoleRevoked} event."
      },
      "revokeRole(bytes32,address)": {
        "details": "Revokes `role` from `account`. If `account` had been granted `role`, emits a {RoleRevoked} event. Requirements: - the caller must have ``role``'s admin role. May emit a {RoleRevoked} event."
      },
      "safeTransferFrom(address,address,uint256)": {
        "details": "See {IERC721-safeTransferFrom}."
      },
      "safeTransferFrom(address,address,uint256,bytes)": {
        "details": "See {IERC721-safeTransferFrom}."
      },
      "setApprovalForAll(address,bool)": {
        "details": "See {IERC721-setApprovalForAll}."
      },
      "symbol()": {
        "details": "See {IERC721Metadata-symbol}."
      },
      "tokenURI(uint256)": {
        "details": "See {IERC721Metadata-tokenURI}."
      },
      "transferFrom(address,address,uint256)": {
        "details": "See {IERC721-transferFrom}."
      }
    },
    "version": 1
  },
  "userdoc": {
    "kind": "user",
    "methods": {},
    "version": 1
  }
}